:020000040800F2
:10000000689A012071020008F1F8000849D300083D
:100010007DF70008731F000859590108000000000F
:10002000000000000000000000000000A917010807
:10003000B93700080000000039FC00089F1E0108C5
:100040008B0200088B0200088B0200088B0200085C
:10005000A53E00088B0200088B0200088B020008F6
:100060008B020008BB370008C53700088B02000868
:10007000C9320008D9320008E9320008F932000814
:100080008B0200088B0200088B0200088B0200081C
:10009000D52400088B0200088B020008CF37000827
:1000A0008B0200088B0200088B0200088B020008FC
:1000B0008B0200088B020008711F01088B020008E8
:1000C0008B0200085DD300084DD300089D15010880
:1000D000AD150108F52E01088B020008052F010857
:1000E0008B0200088B0200088B0200088B020008BC
:1000F0008B020008A91F01088B02000809330008C1
:100100008B0200088B0200088B0200088B0200089B
:100110008B0200088B020008811F0108991F01084B
:10012000193300088B02000829330008393300080E
:10013000493300088B0200088B0200088B0200087C
:10014000E52400088B0200088B020008F5F800087F
:10015000593300086933000879330008452F010836
:100160007DD300086DD300088B0200088B020008C5
:100170008B0200088B0200088B02000800000000C0
:100180008B0200088B02000800F002F800F060F813
:100190000AA090E8000C82448344AAF10107DA45E2
:1001A00001D100F055F8AFF2090EBAE80F0013F0D4
:1001B000010F18BFFB1A43F001031847F09D01001F
:1001C000309E01000A444FF0000C10F8013B13F080
:1001D000070408BF10F8014B1D1108BF10F8015BA0
:1001E000641E05D010F8016B641E01F8016BF9D193
:1001F00013F0080F1EBF10F8014BAD1C0C1B09D1EA
:100200006D1E58BF01F801CBFAD505E014F8016B5B
:1002100001F8016B6D1EF9D59142D6D370470000ED
:100220000023002400250026103A28BF78C1FBD8FF
:10023000520728BF30C148BF0B6070471FB519F087
:10024000E6F99DE8030000F0FFF91FBD10B510BDF1
:1002500000F0B6FA1146FFF7F1FF17F03BFC00F093
:10026000D4FA03B4FFF7F2FF03BC00F005FB000073
:100270000948804709480047FEE7FEE7FEE7FEE73A
:10028000FEE7FEE7FEE7FEE7FEE7FEE70448054976
:10029000054A064B704700005D1F010889010008F0
:1002A00068FA0020689A0120684A0120684A012003
:1002B00070B5A0FB0140B4F1805170F1000024BF83
:1002C000002070BD204600F0EEF905001CBF21465D
:1002D00000F023FA284670BD70B50446051F00F0F3
:1002E00097F90068002C14BF446870BD002C18BF3B
:1002F000AC423CBF20466468F8D301680A18AA42A1
:1003000018BF456003D12A6805461144016028687A
:100310004119A1421CBF6C6070BD616869602168B1
:100320000844286070BD70B50D460646041F00F0F5
:100330006FF9D0F800C0C5B1E6B105F10B0020F0AF
:100340000703AB423CBF002070BD2068984238BF15
:10035000DCF8042013D3C11A08292FD3E01840F881
:10036000041B2360FFF7B8FF28E03046FFF7B4FF17
:10037000002070BD2846BDE8704000F094B9002A06
:1003800018BFA2423CBF94465268F8D3011991426B
:1003900016D111680844984212D3C11A08293CBFEB
:1003A0002060506808D35168E018416021681268E5
:1003B0001144C91A01602360CCF80400201D70BDEF
:1003C000181F00F070F9050007D021680A1F211DD1
:1003D00000F0C1F8201DFFF77FFF284670BD53EAEB
:1003E000020C00F069802DE9F04B4FF00006002B65
:1003F0001FBFB3FA83F503FA05F424FA05F65E404D
:1004000012BF1643B2FA82F502FA05F4C5F12005CF
:100410001EBF22FA05FC44EA0C04203556EA044CBF
:100420004FEA144418BF641C4FF000084FF0000955
:10043000904271EB030C39D3002919BFB1FA81F74F
:1004400001FA07F6B0FA80F700FA07F6C7F12007BD
:100450001EBF20FA07FC46EA0C062037B6FBF4FC68
:10046000A7EB0507103F07F01F0BCBF120060CFA96
:100470000BFB2CFA06F644BFB3460026202FA4BF80
:100480005E464FF0000B5BEA060C08BF4FF0010B15
:1004900019EB0B09ABFB027C48EB0608C01B06FB03
:1004A00002CC0BFB03CC71EB0C01C1E70B460246FF
:1004B00041464846BDE8F08B13B54FF000004FF0C1
:1004C0000001AFF30080BDE81C407047032A40F2F2
:1004D000308010F0030C00F0158011F8013BBCF1E6
:1004E000020F624498BF11F801CB00F8013B38BFFE
:1004F00011F8013BA2F1040298BF00F801CB38BF0C
:1005000000F8013B11F0030300F02580083AC0F029
:10051000088051F8043B083A51F804CBA0E80810D1
:10052000F5E7121D5CBF51F8043B40F8043BAFF304
:100530000080D20724BF11F8013B11F801CB48BF5E
:1005400011F8012B24BF00F8013B00F801CB48BF94
:1005500000F8012B704710B5203AC0F00B80B1E8CD
:100560001850203AA0E81850B1E81850A0E81850E8
:10057000BFF4F5AF5FEA027C24BFB1E81850A0E8F1
:10058000185044BF18C918C0BDE810405FEA827C0B
:1005900024BF51F8043B40F8043B08BF7047D20722
:1005A00028BF31F8023B48BF11F8012B28BF20F8C3
:1005B000023B48BF00F8012B70474FF0000200B526
:1005C000134694469646203922BFA0E80C50A0E876
:1005D0000C50B1F12001BFF4F7AF090728BFA0E824
:1005E0000C5048BF0CC05DF804EB890028BF40F8F0
:1005F000042B08BF704748BF20F8022B11F0804F32
:1006000018BF00F8012B7047704770477047000013
:100610000048704710DA01207047704770477047F4
:1006200038B504460A4600206946AFF3008000282A
:1006300008BF38BD02460099204600F0A0F801200E
:1006400038BD012000F0B5B8F8B5AFF3008005461D
:1006500000200C46102000BF0646A819A0420DD964
:10066000324669460020AFF30080070008BF00F063
:10067000A0F80098A04218BF0546C419FFF7C8FFAC
:1006800005600746F01D20F007004619284600F0D7
:100690006FF8B44208BFF8BDA21B31463868BDE808
:1006A000F84000F06CB870B50646FFF7B1FF05687A
:1006B00006F10B0020F00704B4429CBF002070BD7F
:1006C0002B466A68BAB11068A04210D304F1080141
:1006D00088423CBF5068586007D351681019416088
:1006E0001168091B016058601460101D70BD13462D
:1006F0005268002AE7D121462846FFF791FF0028DB
:10070000DED170BD10B500F02FF8006810BD10B537
:10071000044600F029F8046010BD4FF000020429DF
:10072000C0F0128010F0030C3FF449AFCCF1040C80
:10073000BCF1020F18BF00F8012BA8BF20F8022B54
:10074000A1EB0C01FFF73BBF5FEAC17C24BF00F8BF
:10075000012B00F8012B48BF00F8012B7047000067
:100760000048704708DA01200048704708DA012085
:1007700000210160C0E90110704710207047034656
:1007800040688C46002818BF88423CBF034640683A
:10079000F8D318681844884207D00CF1030020F001
:1007A0000700001D411A521A0146081D0A60FFF792
:1007B00093BD10B500F038F8BDE8104000F02EB839
:1007C0007546FFF7CDFFAE4605006946534620F05B
:1007D0000700854618B020B5FFF758FDBDE820405A
:1007E0004FF000064FF000074FF000084FF0000BED
:1007F00021F00701AC46ACE8C009ACE8C009ACE8A0
:10080000C009ACE8C0098D46704710B50446AFF387
:1008100000802046BDE81040FFF723BD002801D02E
:1008200000F02AB87047000010B5012805D000215B
:1008300003A000F028F8012010BD09A1F8E700008E
:1008400053494752544D454D3A204F7574206F66B9
:100850002068656170206D656D6F72790000000021
:100860003A2048656170206D656D6F727920636F05
:10087000727275707465640001491820ABBEFEE7A2
:1008800026000200704770B505460C460A2000E0BD
:100890006D1C00F011F835B128780028F8D102E07D
:1008A000641C00F009F814B120780028F8D1BDE8E4
:1008B00070400A20AFF3008008B569468DF800004B
:1008C0000320ABBE08BD0000F0EE401AF0EE412A56
:1008D00031EEE00AB5EEC00AF1EE10FA01DD0120BA
:1008E0000AE031EEE00AB5EEC00AF1EE10FA02D2EB
:1008F0004FF0FF3000E0002000EE100AB8EEC01A02
:10090000B0EE602A01EE222A32EE610A20EE010AE0
:10091000B5EEC00AF1EE10FA02DBB0EE610A7047E4
:10092000B0EE420AFBE7B0EE401A81EE200ABDEEBF
:10093000C00AF8EEC01AB0EE410A01EEE00A7047B4
:1009400010B52DED0A8BB0EE408A0446B7EE000AD2
:10095000F0EE408A18EE100A15F069F820B918EE8A
:10096000100A15F050F838B10120FE4908709FEDCB
:10097000FE0ABDEC0A8B10BD002C27DA604218F08D
:1009800078FA41EC1B0B18EE100A18F0CFFD41EC81
:100990001C0BB0EE4B1AF0EE6B1AB0EE4C0AF0EEF8
:1009A0006C0A15F035FBB0EE40AAF0EE60AA53ECED
:1009B0001A2B9FEDEE0B51EC100B18F0D3F841EC15
:1009C000190B17F0E1FF00EE100AD2E70BE004F07C
:1009D000010018B128EE880AF0EE408A28EE080AD5
:1009E000B0EE408A6410002CF1D1B0EE680AC0E786
:1009F00010B52DED068BB0EE408A18EE100A18F0F7
:100A000095FD41EC1A0BB0EE4A0AF0EE6A0A15F0B9
:100A100053F9B0EE409AF0EE609A51EC190B17F0D2
:100A2000B3FF00EE100ABDEC068B10BD10B52DED26
:100A3000028BB0EE408A18EE100A14F0F8FF20B9CD
:100A400018EE100A14F0DFFF38B10120C549087014
:100A50009FEDC50ABDEC028B10BDB5EEC08AF1EE6C
:100A600010FA0ED8B5EEC08AF1EE10FA03D20120CA
:100A7000BC49087002E00220BA4908709FEDBA0A2A
:100A8000E8E7B7EE000AB4EE408AF1EE10FA02D1C0
:100A90009FEDB50ADEE7002406E0B2EE040AC8EED8
:100AA000000AB0EE608A641C9FEDB20AB4EEC08A00
:100AB000F1EE10FAF1DC06E0B2EE040A28EE000ACC
:100AC000B0EE408A641E9FEDAC0AB4EEC08AF1EE2F
:100AD00010FAF1D9B0EE480A17F0EAFC00EE904A9D
:100AE000F8EEE00A9FEDA51A10EE810AB2E710B504
:100AF0002DED048BF0EE408AB0EE608A18EE900A7D
:100B000014F095FF20B918EE900A14F07CFF38B16C
:100B10000120944908709FED940ABDEC048B10BD30
:100B200018EE100A14F083FF20B918EE100A14F022
:100B30006AFF28B101208B4908709FED8B0AECE712
:100B4000F5EEC08AF1EE10FA0AD1B5EEC08AF1EEE8
:100B500010FA02D10120834908709FED830ADCE777
:100B6000B0EE680AFFF762FF20EE080AB0EE409A86
:100B7000FFF73EFFD1E710B52DED048BF0EE408A74
:100B8000B0EE608AB0EE480AFFF750FFB0EE409A30
:100B9000B0EE680AFFF74AFFC9EE000AB0EE600A3D
:100BA000BDEC048B10BD10B52DED048BF0EE408A2A
:100BB00018EE900A14F03BFF20B918EE900A14F0DA
:100BC00022FF38B10120674908709FED670ABDEC2C
:100BD000048B10BDF5EEC08AF1EE10FA02D20120AE
:100BE00060490870B6EE000A28EE809AB0EE688A76
:100BF00018EE104A6248A0EB640408EE104A69EE51
:100C0000080AB7EE080A00EEC80A20EE080AB0EE9D
:100C1000408A69EE080AB7EE080A00EEC80A20EE1C
:100C2000080AB0EE408AB0EE480AD0E710B52DEDC4
:100C3000028BB0EE408A18EE100A14F0F8FE20B9CC
:100C400018EE100A14F0DFFE38B101204549087093
:100C50009FED450ABDEC028B10BDB0EE480AFFF7D0
:100C6000A2FFB7EE001AC1EE000AB0EE600AF1E78B
:100C700010B52DED028BB0EE408A18EE100A14F07C
:100C8000D6FE20B918EE100A14F0BDFE38B10120CE
:100C9000344908709FED340ABDEC028B10BDB0EEF4
:100CA000480AFFF7A5FEF0EE408AB1EE480AFFF7CA
:100CB0009FFE78EEC00AB0EE001A80EE810AEBE7E4
:100CC00010B52DED028BB0EE408A18EE100A14F02C
:100CD000AEFE20B918EE100A14F095FE38B10120CE
:100CE000204908709FED200ABDEC028B10BDB0EECC
:100CF000480AFFF77DFEF0EE408AB1EE480AFFF7A2
:100D000077FE78EE800AB0EE001A80EE810AEBE7FB
:100D100010B52DED068BB0EE408A18EE100A14F0D7
:100D200086FE20B918EE100A14F06DFE38B10120CD
:100D30000C4908709FED0C0ABDEC068B10BD18EE37
:100D4000100A18F0F3FB41EC1A0BB0EE4A0AF0EE71
:100D50006A0A14F0B1FFB0EE409AF0EE609A51ECDE
:100D6000190B0FE00201002000000000000000004D
:100D70000000F03FCDCCCC3D0AD7233C8E5D134024
:100D8000DF59375F17F000FE08EE900AB7EE000A51
:100D900008EEA80AB0EE001AC1EE000AB7EE000A8B
:100DA00030EE600AC8E7000010B531A003F006FC81
:100DB00004462146334803F08BFC3349086008465B
:100DC000006890ED030A314880ED000A3048D0ED0C
:100DD000020AF1EE600A2D4890ED001ADFED2D1A9F
:100DE00031EE611AF7EE001A41EE810AB0EE600AA8
:100DF0009FED291ADFED290A16F03CFE284880ED08
:100E0000000A90ED000A274880ED000A18A003F0C0
:100E1000D5FB044621461B4803F05AFC1A490860DA
:100E20000846006890ED030A184880ED000A18484B
:100E3000D0ED000AF1EE600A144890ED001ADFEDE3
:100E40001A1A31EE611AF7EE001A41EE810AB0EE7D
:100E5000600A9FED111ADFED110A16F00BFE134820
:100E600080ED000A90ED000A114880ED000A10BDE7
:100E700047696D62616C5F50697463685F4D6F7440
:100E80006F720000DCE500207C010020640100207E
:100E9000F0E600203333F3BFDB0F4940DB0F49C0DE
:100EA0008001002088010020000000008401002053
:100EB0008C0100207FB50546684616F09BFD0E228A
:100EC00069465148FFF702FB9FED500A504880EDFC
:100ED000000A00204E4908719FED4E0A084680ED39
:100EE000020A4D4890ED000A084680ED030A4A4880
:100EF00090ED020A084680ED040A43483938D0F8DC
:100F00003F00886140483938D0F83B0048613E488E
:100F1000393890F8430008773B48393890F8440056
:100F20004877642008629FED3D0A084680ED090A73
:100F30009FED3B0A80ED0A0A032081F82C00042073
:100F400081F82D0037A003F039FB044621463848CC
:100F500003F0BEFB374908600846006816F07EFBC8
:100F600035A003F02BFB04462146314803F0B0FBCB
:100F70003549086035A003F021FB044621462C4882
:100F800003F0A6FB364908605A201F493939087218
:100F90000846407A20F001011B4839384172407AF6
:100FA00020F002011848393841721B488068164900
:100FB0003939C1F80A0018480068C1F80E0016480F
:100FC0004068C1F8120020480068C1F81E0024489B
:100FD0000068C1F822009FED120A10EE100AC1F855
:100FE000260020480068C1F816001F480068C1F8B4
:100FF0001A001E4890F8A9120348393880F83610B4
:10100000083017F055FC7FBD51D901207F6ABC3DE7
:10101000A8D80120CDCCEC41F0E60020728A0E3C2D
:10102000000000005365745F41415F6F6E00000077
:10103000DCE50020740100204769626D616C5F5936
:1010400061775F56656C0000800100204769626D22
:10105000616C5F50697463685F56656C00000000E6
:1010600084010020880100208C0100205CD1012037
:1010700070B504465B4D686820F44030686068686D
:101080006168084368602068406820F480702168C7
:10109000486020684168206941EA00202168486072
:1010A0002068406820F040702168486020684068EF
:1010B000A1680843216848602068806820F40060C7
:1010C0002168886020688068E1680843216888603A
:1010D0004549A06A884218D02068806820F0706076
:1010E0002168886020688068A16A08432168886058
:1010F0002068806820F040502168886020688068FF
:10110000E16A0843216888600BE02068806820F06D
:101110007060216888602068806820F040502168F5
:1011200088602068806820F002002168886020685C
:101130008168207E41EA4000216888602020005DAF
:10114000F8B1606A18B1606A082800D804E04FF46A
:10115000F56126A016F080FA2068406840F400602F
:10116000216848602068406820F460402168486039
:1011700020684168606A401E41EA4030216848604A
:1011800005E02068406820F400602168486020681D
:10119000C06A20F470002168C8622068C16AA08B10
:1011A000401E41EA00502168C8622068806820F42F
:1011B0000070216888602068816894F8300041EAF6
:1011C0004020216888602068806820F48060216861
:1011D000886020688168606941EA802021688860B1
:1011E00070BD0000002301400100000F2E2E2F448F
:1011F0007269766572732F53544D33324634787862
:101200005F48414C5F4472697665722F5372632F59
:1012100073746D3332663478785F68616C5F6164D3
:10122000632E630070B504460D4694ED001A21EE5E
:10123000011AD4ED011A94ED012A01EE821AF7EE9B
:10124000001AB0EE002A52EE011AF0EE610A94ED97
:10125000001AD4ED031A21EE211AD4ED011A94EDEF
:10126000022A01EE821AF0EE001A21EE211AB0EEE7
:10127000410A16F099FD85ED020A94ED001A21EE5F
:10128000011AD4ED031A94ED032A01EE821AF7EE47
:10129000001AB0EE002A52EE011AF0EE610A94ED47
:1012A000001AD4ED011A21EE211AD4ED021A94EDA0
:1012B000032A01EE821AF0EE001A21EE211AB0EE96
:1012C000410A16F071FD85ED000AD4ED010A94ED96
:1012D000031A60EE810A94ED001AD4ED021A41EE71
:1012E000610AB8EE001A60EE810AB0EE600A14F0EE
:1012F000E9FB85ED010A70BDFEB5DDE90845002674
:101300000096019602969DE8C010C0E9047CC66074
:101310009DE8C010C0E90A7C46629DE8C010C0E9A3
:101320000D7C0663DFED190AC0ED150ADFED180A22
:10133000C0ED160ADFED170AC0ED170ADFED160A39
:10134000C0ED000ADFED140AC0ED020ADFED120A5B
:10135000C0ED010A80ED140AF7EE000AC0ED0F0A95
:10136000DFED0D0AC0ED100ADFED0B0AC0ED110A2A
:10137000DFED090AC0ED120ADFED080AC0ED130A1D
:101380000166826643660467C566FEBDB10B123A0C
:101390003B7EB9BBCEFB7FBA00000000AA371D41DF
:1013A00070B50446A06E30B104F1240204F10C01C2
:1013B000D4E919039847206F28B104F13001D4E92A
:1013C0001B0290470BE09FED3D0A84ED0C0A9FED58
:1013D0003B0A84ED0D0A9FED390A84ED0E0A94ED67
:1013E000090AD4ED150A30EE600A84ED090A94ED7D
:1013F0000A0AD4ED160A30EE600A84ED0A0A94ED6A
:101400000B0AD4ED170A30EE600A84ED0B0A94ED56
:10141000130A2B4880ED000AD4ED140AB0EE600ADE
:1014200004F1300304F1240204F10C0104F13C0046
:10143000256EA847214604F13C00FFF7F3FE04F1B6
:101440003C01204894ED051AD4ED040A94ED030AFA
:1014500000F0DEFC1B4890ED020AD4ED130A30EEDA
:10146000600A80ED020A90ED000ADFED170A20EE17
:10147000200AD4ED060A9FED151A00EE810A84EDCC
:10148000060A90ED010ADFED100A20EE200AD4EDE5
:10149000070A9FED0E1A00EE810A84ED070A90ED0F
:1014A000020ADFED090A20EE200AD4ED080A9FEDBA
:1014B000071A00EE810A84ED080A70BD00000000E2
:1014C00004010020D0E500209A99193FCCCCCC3EF5
:1014D0002DE9F05F05460C4617469846DDE90AAB54
:1014E00087EA0710052190FBF1F201FB120105F1DB
:1014F000100050F821602780C4F814B0B8F1000F34
:101500002BD0A078401C618860F30701618000BF88
:101510004FF00009A278D1002069FEF704FF814650
:10152000B9F1000F0AD1A07840B1287B20F0FE006D
:1015300008302873882114A016F08EF8C4F8109093
:1015400000BFA078401E216941F83080A078401E7D
:10155000216901EBC000C0F804A046B100E0B66903
:10156000B0690028FBD1A6420CD0B4610AE087EA3A
:101570000710052190FBF1F201FB120105F11000AB
:1015800040F82140BDE8F09F2E2E5C53454D4C5C49
:101590004D6964646C6577617265735C53797374CB
:1015A000656D5C6D6573736167652E630000000097
:1015B00010B5044600BF04F114000FF043FB802176
:1015C000201D00F0DEFA5521201D00F0DAFA552129
:1015D000201D00F0D6FA6B49087004F114000FF0DA
:1015E0003DFB00BF012005F04DFB00BF04F11400DE
:1015F0000FF028FB8021201D00F0C3FA5521201D8B
:1016000000F0BFFA5521201D00F0BBFA5D490870BB
:1016100004F114000FF022FB00BF012005F032FBA3
:1016200000BF04F114000FF00DFBB6227E21201D37
:1016300000F0B7FA04F114000FF010FB00BF5020C7
:1016400005F020FB00BF04F114000FF0FBFA80212D
:10165000201D00F096FA5521201D00F092FA552128
:10166000201D00F08EFA4749087004F114000FF0B5
:10167000F5FA00BF012005F005FB00BF04F11400DE
:101680000FF0E0FA8021201D00F07BFA5521201D8B
:1016900000F077FA5521201D00F073FA39490870DF
:1016A00004F114000FF0DAFA00BF012005F0EAFAA5
:1016B000344800781E2801D0FF2010BD0020324998
:1016C000087059E000BF04F114000FF0BBFA2E4877
:1016D000007800EB40002D4B184442782A480078EF
:1016E00000EB4000195C201D00F05BFA04F11400CF
:1016F0000FF0B4FA00BF012005F0C4FA00BF04F1F6
:1017000014000FF09FFA2048007800EB40001F4AB9
:10171000105C40F08001201D00F033FA5521201D9F
:1017200000F02FFA5521201D00F02BFA1549087002
:1017300004F114000FF092FA00BF012005F0A2FAA4
:101740001148007800EB40001049084440780D49EA
:10175000097888420BD00C48007800EB40000B4918
:10176000084480780A4909780843094908700648FE
:101770000078401C04490870034800780628A1DB63
:1017800000209AE7F0C00120F1C00120FCC0012038
:10179000F2C0012010B5044600BF04F11C000FF098
:1017A00051FA5C4A0021201D00F0DCF904F11C0014
:1017B0000FF054FA00BF012005F064FA00BF04F1F5
:1017C0001C000FF03FFA534A0021201D00F0CAF917
:1017D00004F11C000FF042FA00BF012005F052FA9C
:1017E00000BF04F11C000FF02DFAB6221421201DB9
:1017F00000F0D7F904F11C000FF030FA00BF5020C0
:1018000005F040FA00BF04F11C000FF01BFA414A3A
:101810000021201D00F0A6F904F11C000FF01EFAB3
:1018200000BF012005F02EFA00BF04F11C000FF0EC
:1018300009FA384A0021201D00F094F904F11C0037
:101840000FF00CFA00BF012005F01CFA31480078B7
:101850000F2801D0FF2010BD00202F49087053E051
:1018600000BF04F11C000FF0EDF92B48007800EBED
:1018700040002A4B184442782748007800EB40008B
:10188000195C201D00F08DF904F11C000FF0E6F941
:1018900000BF012005F0F6F900BF04F11C000FF0B5
:1018A000D1F91D48007800EB40001C4A115C194A30
:1018B000201D00F057F904F11C000FF0CFF900BF14
:1018C000012005F0DFF91448007800EB40001349CF
:1018D000084440780F490978884210D00E480078B3
:1018E000401E0D4908700846007800EB40000C4986
:1018F000084480780B49097808430A49087006486B
:101900000078401C04490870034800780628A7DBCB
:101910000020A0E7F0C00120F1C001200EC101208D
:10192000FCC00120F2C0012070B505460024284605
:10193000FFF73EFE04432846FFF72CFF04432046F2
:1019400070BD000070B504460D46164600BF04F198
:1019500014000FF077F99221201D00F012F90623F0
:10196000704A1221201D00F0E5F804F114000FF078
:1019700075F900BF6B484078000200B269490978E8
:101980000843694908800846B0F9000000EE100AD3
:10199000B8EEC00A6548D0ED000A20EE200A85EDB9
:1019A000000A6048C078000200B25E4989780843A6
:1019B0005D4908800846B0F9000000EE100AB8EE54
:1019C000C00A5A48D0ED000A20EE200A85ED010A2F
:1019D00054484079000200B25249097908435249FB
:1019E00008800846B0F9000000EE100AB8EEC00A00
:1019F0004E48D0ED000A20EE200A85ED020A00BF15
:101A000004F11C000FF01EF90823464A0021201D96
:101A100000F090F804F11C000FF020F900BF4148DD
:101A200000780F2844D13F48C078000200B23D49F9
:101A3000897808433C4908800846B0F9000000EE68
:101A4000100AB8EEC00A3A48D0ED000A20EE200A8B
:101A500086ED000A33484079000200B23149097925
:101A60000843314908800846B0F9000000EE100A2A
:101A7000B8EEC00A2E48D0ED000A20EE200A86ED0E
:101A8000010A2848C079000200B226498979084332
:101A9000254908800846B0F9000000EE100AB8EEAB
:101AA000C00A2348D0ED000A20EE200A86ED020A83
:101AB00000BF04F114000FF0C5F8A221201D00F0B2
:101AC00060F80223174A2221201D00F033F804F1A8
:101AD00014000FF0C3F800BF12480078C00011498D
:101AE000497840EA6110104908800846B0F90000C2
:101AF000B0F5806F05DB08460088A0F5006000B2F5
:101B000008800948B0F9000000EE100AF8EEC00A9B
:101B1000B4EE001AB3EE070A00EE810A84ED000A63
:101B200070BD000020C1012028C10120E8C00120B3
:101B3000ECC001202DE9F04107460E4614461D4633
:101B400046F08001384600F01CF807E05521384681
:101B500000F017F82070641C681EC5B2002DF5D186
:101B6000BDE8F08170B506460C46154644F080018C
:101B7000304600F006F85521304600F002F8287093
:101B800070BD13B582B004464FF47A70012301AAE8
:101B900003A9009020460FF06FF99DF8040004B0EF
:101BA00010BD70B505460E46144631462846FFF76F
:101BB000E8FF21462846FFF7E4FF70BDF8B505F0C1
:101BC00057FB044604F57A75B1EE040A084880ED27
:101BD000000A08A002F0F2FC06460020009004482B
:101BE000002331460268084816F03EFBF8BD0000AD
:101BF00050D101205365745F4D6F76655F585F5318
:101C00007065656400000000DCE5002010B52DED76
:101C1000068B154890ED000AB5EEC00AF1EE10FAF9
:101C20001FD21248006817F081FC41EC1A0B9FED9F
:101C3000100B53EC102B17F083F941EC190B16F035
:101C4000A3FE08EE100A084890ED000AF0EE400AE4
:101C5000B0EE481A9FED080AFEF736FE024880ED06
:101C6000000ABDEC068B10BD50D10120E800002019
:101C70009A9999999999A93F0000000010B52DED06
:101C8000048B0446B0EE409AF0EE609A04B103E093
:101C9000682156A015F0E0FC39EE690A84ED060AC9
:101CA000606B50BB94ED060AD4ED010A60EE208A09
:101CB00094ED080A30EE280A84ED080A94ED060A2D
:101CC000D4ED070A30EE600AD4ED020A20EE200AB5
:101CD000D4ED0C0A20EE200AD4ED090A94ED0C1A7A
:101CE000F7EE001A31EEC11A00EE810A84ED090AFE
:101CF00094ED060A84ED070A06E0F0EE690AB0EEFC
:101D0000490A2046616B884794ED090AD4ED000A20
:101D100094ED061A00EE810AD4ED080A30EE208A0E
:101D200094ED050AB4EEC80AF1EE10FA0CD294ED67
:101D3000040AB4EEC80AF1EE10FA02D294ED040AD5
:101D400004E0B0EE480A01E094ED050A84ED0E0AC5
:101D500094F8280001280ED0022841D194ED080AF9
:101D6000D4ED0E0A70EEC80A94ED0B1A00EE810A4B
:101D700084ED080A34E094ED0E0AB4EE480AF1EE60
:101D800010FA2CD094ED060AB5EEC00AF1EE10FA66
:101D900001DD01200AE094ED060AB5EEC00AF1EE7D
:101DA00010FA02D24FF0FF3000E00020B5EEC08AFA
:101DB000F1EE10FA01DD012108E0B5EEC08AF1EE86
:101DC00010FA02D24FF0FF3100E000214843002812
:101DD00005DD94ED080A30EE680A84ED080A00BFBC
:101DE00000BF94ED0E0ABDEC048B10BD2E2E5C538B
:101DF000454D4C5C4D6964646C6577617265735CDC
:101E0000436F6E74726F6C5C5049442E6300000027
:101E100003B52DED040BD1ED020A91ED021AB6EED9
:101E2000000A00EEC10AD1ED030A91ED031A00EE9B
:101E3000C10ADDED000A20EE200AD1ED010A91ED84
:101E4000021A60EE810A91ED001AD1ED031A41EEFB
:101E5000610A9DED011A00EE810AD1ED010A91EDB2
:101E6000031A60EE810A91ED001AD1ED021A41EEDB
:101E7000210A9DED021A00EE810AF0EE000A20EE22
:101E8000200A80ED000A91ED010AD1ED020A20EE50
:101E9000200AD1ED000A91ED031A00EE810ADDED72
:101EA000000A60EE200A91ED011AD1ED011AB6EE9A
:101EB000000A01EE610AD1ED031A91ED032AB0EE9A
:101EC000401A01EEC21ADDED011AB0EE600A01EE11
:101ED000210AD1ED020A91ED031A60EE810A91ED1B
:101EE000001AD1ED011A41EE610A9DED021A00EED1
:101EF000810AF0EE000A20EE200A80ED010A91ED41
:101F0000010AD1ED030A20EE200AD1ED000A91ED7D
:101F1000021A00EEC10ADDED000A20EE200AD1ED22
:101F2000020A91ED031A60EE810A91ED001AD1EDDB
:101F3000011A41EE210A9DED011A00EE810A91ED90
:101F4000011AD1ED011AF6EE000A41EE610A91ED97
:101F5000021AD1ED021A41EE610A9DED021A00EE5D
:101F6000810AF0EE000A20EE200A80ED020A06B097
:101F700000BD00BFFEE7000070B5044604B103E0F9
:101F8000562188A015F068FBD4E903108847054660
:101F9000607800F00101A94208D1A0780B2801DB8C
:101FA0000B2001E0A078401CA07007E0A07800287A
:101FB00001DC002001E0A078401EA070A078062877
:101FC0005BDB2078C0F3021020B1012820D002286A
:101FD00052D100E000BF05F04BF96060607801214C
:101FE00001EB5000617860F34701617000BF207819
:101FF00020F00F00C01C2070206A10B12046216A1A
:10200000884700BF207820F070001030207033E047
:1020100000BF207820F00F00401C2070A06910B194
:102020002046A169884700BF05F022F96168401A7F
:10203000B0F5FA7F1FD92078C00980B900BF207899
:1020400020F00F00C01D2070206B10B12046216BC6
:10205000884700BF207820F080008030207000BFCB
:10206000207820F00F0008302070606B10B12046FF
:10207000616B884700BF00BF92E02078C0F3021078
:1020800020B1012812D002287ED135E0207820F03E
:102090008000207000BF207820F00F002070606961
:1020A00010B120466169884700BF78E005F0E0F88C
:1020B000A06000BF207820F00F00801C2070E06935
:1020C00010B12046E169884700BF2078C00958B1A7
:1020D00000BF207820F00F0009302070A06B10B1F5
:1020E0002046A16B884700BF207820F07000203088
:1020F00020700020606052E005F0BAF8A168401A34
:10210000962846D9A068002843D02078C009A0BBF3
:102110006078400820B1012807D002281FD111E0C3
:10212000A32120A015F098FA26E000BF207820F027
:102130000F00001D2070606A10B12046616A884758
:1021400000BF19E000BF207820F00F00401D207074
:10215000A06A10B12046A16A884700BF0CE000BF0A
:10216000207820F00F00801D2070E06A10B120461A
:10217000E16A884700BF00BF00BF0020A060607810
:1021800020F0FE00607000E004E0207820F0700095
:10219000207004E0207820F07000207000BF00BFA5
:1021A00070BD00002E2E5C53454D4C5C4472697628
:1021B0006572735C68616C5C627574746F6E2E63BB
:1021C000000000002DE9F04104460D4616461F466A
:1021D00004B103E030211AA015F03EFA06B103E085
:1021E000312117A015F038FA0DB1012D00D103E00F
:1021F000322113A015F030FA607865F300006070AA
:10220000E6602761207820F00F00207000206060D9
:10221000A060A070607820F0FE006070002005E0F3
:10222000002204F1140141F82020401C0A28F7DBA9
:102230000020E063204600F04BF8BDE8F08100008C
:102240002E2E5C53454D4C5C447269766572735C0E
:1022500068616C5C627574746F6E2E6300000000C0
:1022600070B506460C46154606B103E04A2108A0A3
:1022700015F0F2F905B103E04B2105A015F0ECF9DA
:1022800004B100BF00BF06F1140040F8245070BD37
:102290002E2E5C53454D4C5C447269766572735CBE
:1022A00068616C5C627574746F6E2E630000000070
:1022B00070B505460548046834B103E02046FFF7D1
:1022C0005BFEE46B002CF9D170BD00005C000020C7
:1022D000084A1168126812B9064A1060704703E094
:1022E000814200D1FAE7C96BCA6B002AF8D1C863F2
:1022F00000BFF3E75C0000202DE9FC4104460D46D9
:1023000016461F460095ADF804708DF806606946C4
:10231000204601F061FA38B994F86801401C84F84D
:1023200068010020BDE8FC810120FBE770B505468F
:102330000948046808E0D4F85C01A84200D105E02F
:10234000D4F86C0100B970BD002CF4D100BF204658
:1023500000F004F800BFF6E7E4C0012010B52DED51
:10236000028B82B0044604F083FFD4F858118842EF
:1023700035D96946204601F0C3F948B19FED190AE5
:1023800004F5AE700EF0B2FC02B0BDEC028B10BDD5
:1023900094F86801401E84F8680104F069FFBDF8F4
:1023A00004100844C4F8580104F5AE7000990EF00A
:1023B000E7FC9DF8060000EE100AB8EE400AF6EEC3
:1023C000000A20EE200ADFED080A80EE201AB0EEA7
:1023D000418AB0EE480A04F5AE700EF087FC00BFEB
:1023E000D2E70000000000000000C8422DE9F843D9
:1023F00004460E46174698460020C4F86C01C4F8FF
:10240000580184F8680104F1100327220821009084
:1024100020460BF0AFFE1148006810B90F48046069
:102420000AE00E48056801E0D5F86C51D5F86C015A
:102430000028F9D1C5F86C41094A0E21304609F04F
:10244000FBFF43463A46314604F5AE700EF012FCEF
:1024500004F5AE700EF0C4FCBDE8F883E4C00120C2
:102460002D23000870B505460C4695F86801C0F1AB
:102470002800062801DC012070BD6423224641F2B9
:1024800070712846FFF738FF6423002241F2707113
:102490002846FFF731FF6423224641F27071284637
:1024A000FFF72AFF6423002241F270712846FFF7EC
:1024B00023FF6423224641F270712846FFF71CFF78
:1024C0006423002241F270712846FFF715FF0020B7
:1024D000D2E7000010B5024803F014FA10BD000066
:1024E000B0CB002010B5024803F00CFA10BD00007C
:1024F00014CC00200346042B15D007DC7BB1012B44
:102500000ED0022B0DD0032B12D10BE0202B0BD0C1
:10251000212B0AD0222B09D0232B09D107E008E078
:1025200007E006E005E004E003E002E001E000E08F
:1025300000BF00BF002070470020704710B5002288
:102540000449054810F0A1FF0449034810F08EFF2C
:10255000002010BD40DD002028C5012040D500200E
:1025600070B504460D462146034810F07FFF02482F
:1025700010F048FF002070BD28C501202DE9F04172
:1025800004460D4600260A48D0F8BC72D7F814025B
:1025900010B10120BDE8F0812A462146044810F020
:1025A00074FF034811F024F806463046F2E70000B5
:1025B00028C5012010B588B09FED630A8DED040A8F
:1025C0009FED620A8DED030A9FED610A8DED050A0C
:1025D000B3EE030A8DED060A01208DF81C00DDE93B
:1025E0000601CDE900015B4803A90EC901F092FD87
:1025F000594B03220021594800F0ECFC554908646E
:10260000554B022200215548603000F0E3FC51494F
:10261000C1F88400504B042200215048C03000F023
:10262000D9FC4C49C1F8C8004B4B062200214C484C
:1026300000F0D0FC4749C1F80C01484890F8380038
:10264000484931F91040DFED482A604200EE100A97
:10265000B8EEC02A00EE104AF8EEC01A9FED431AF9
:10266000F6EE000AB2EE0E0A3A4844300DF07AFA5D
:10267000DFED3D2A604200EE100AB8EEC02A00EEFF
:10268000104AF8EEC01A9FED391AF6EE000AB2EEC3
:102690000E0A304888300DF065FADFED332A6042CB
:1026A00000EE100AB8EEC02A00EE104AF8EEC01A8A
:1026B0009FED2E1AF6EE000AB2EE0E0A2548CC3037
:1026C0000DF050FADFED282A604200EE100AB8EE55
:1026D000C02A00EE104AF8EEC01A9FED241AF6EE5A
:1026E000000AB2EE0E0A22480DF03CFA0324DFED98
:1026F0001E2A604200EE100AB8EEC02A00EE104A10
:10270000F8EEC01A9FED191ADFED180AB2EE0E0AA4
:10271000174850300DF026FADFED132A9FED152AE9
:10272000DFED151A9FED111ADFED100AB1EE040A64
:102730000F488C300DF016FA10490D48C8300DF0D6
:1027400005FB08B010BD00000080D0430080B943F5
:1027500000009A425CD1012000E60020D4D4012080
:10276000F4D50120349D01086F12833A0000000067
:102770006CD201200000F0C20000F042D4C201205F
:1027800070B504460D461646324629462046E36992
:10279000984770BD7CB59FEDB00A10EE104AAFA00F
:1027A00001F00CFF06460020034622463146009009
:1027B000B04815F059FDB0A001F000FF06463146C3
:1027C000AC4801F085FF054695ED030A10EE104A6E
:1027D000AEA001F0F3FE0646002003462246314635
:1027E0000090A44815F040FDAE480068B0F8DB004A
:1027F0000190ADA001F0E2FE0646002000900346E5
:1028000031469C48019A15F02FFD002010B1012897
:1028100016D10AE09FEDA90AA94880ED000A9FEDB4
:10282000A70AA84880ED000A0BE09FEDA70AA4487C
:1028300080ED000A9FEDA40AA24880ED000A00E0A6
:1028400000BF00BFA148006800882D280ADB9F4810
:1028500000680088372805DCB7EE000A9C4880ED48
:10286000000A34E09948006800883C280ADB974851
:1028700000680088462805DC9FED960A944880EDA4
:10288000000A24E09148006800884B280ADB8F4842
:1028900000680088552805DC9FED8F0A8C4880ED84
:1028A000000A14E08948006800885A280ADB874833
:1028B00000680088642805DC9FED880A844880ED64
:1028C000000A04E0B7EE000A814880ED000AB1EE8C
:1028D000040A7F4880ED000A8148007810B1012881
:1028E0007DD10CE003207F490870794890ED000A03
:1028F000DFED7D0A30EE200A80ED000A84E0022040
:1029000078490870BDF804004B2842D00EDC3C2802
:102910002CD006DC2D2816D0322815D037285FD1D0
:1029200013E0412823D046285AD121E05A2843D029
:1029300004DC50282ED0552852D12CE05F283CD002
:1029400064284DD13AE000BF00BF9FED680A10EE49
:10295000104A67A001F032FE0646002003462246D8
:1029600031460090434815F07FFC4AE000BF00BFAD
:102970009FED640A10EE104A5DA001F01FFE0646AE
:10298000002003462246314600903A4815F06CFC80
:1029900037E000BF00BF9FED5C0A10EE104A54A064
:1029A00001F00CFE06460020034622463146009008
:1029B000304815F059FC24E000BF00BF9FED530ADA
:1029C00010EE104A4AA001F0F9FD06460020034629
:1029D000224631460090274815F046FC11E012E0EF
:1029E0009FED420A10EE104A41A001F0E7FD0646B5
:1029F000002003462246314600901E4815F034FC64
:102A000000BF00BF00E000BF00BF39A001F0D6FD4D
:102A1000064600200346224631460090154815F030
:102A200023FC3BA001F0CAFD0646002000903D4873
:102A30000023314602680F4815F016FC3AA001F059
:102A4000BDFD06460020009036480023314642680E
:102A5000084815F009FC7CBD9A9919BF5365745F4D
:102A6000436861737369735F5961775F416E676C27
:102A700065000000DCE5002047696D62616C5F590C
:102A800061775F4D6F746F72000000005265616C7A
:102A90005F436861737369735F5961775F416E6704
:102AA0006C65000014C00120436861737369735F33
:102AB000506F775F4C696D6974000000CDCC4C3D60
:102AC000E0000020E4000020CDCCCC3D18C0012067
:102AD000E80000209A99993F6666A63F3333B33FDA
:102AE000EC000020ED0000209A99993EDB0FC9C050
:102AF000436861737369735F76775F73706565644C
:102B000000000000B4B002C1E4CB16C17CD920C1E2
:102B10005365745F4D6F76655F585F53706565648C
:102B20000000000050D101205365745F4D6F766541
:102B30005F595F53706565640000000030B52DED8E
:102B4000068B87B005469FEDAD0AB0EE409A9FED2B
:102B5000AC0AF0EE409A9FEDAA0AB0EE40AAA9A0F6
:102B600001F02CFD04462146AB4801F0B1FD049074
:102B7000AAA001F023FD04462146A74801F0A8FDC4
:102B80000590ABA001F01AFD04462146A24801F0D1
:102B90009FFD0690ABA001F011FD044621469E4822
:102BA00001F096FDAD490860ADA001F007FD0446B7
:102BB0002146994801F08CFDAF490860AFA001F0B3
:102BC000FDFC04462146944801F082FDAF49C863EC
:102BD000A24890ED000AAE4880ED000AA64890EDAC
:102BE000000AAC4880ED000AAB4890ED000AAB4803
:102BF00080ED000A994890ED000A80ED000A9E4899
:102C000090ED000A80ED000A9FED7D0A8DED060A29
:102C1000D0ED000A914890ED000A04A814F004FEDB
:102C20009A4880ED090AC0ED0A0A80ED0B1A9C480B
:102C3000007DC0F30010B8B19948B0F90000B0F5BC
:102C4000806F05D19648B0F90200B0F5806F05D0CD
:102C50009FED940A8D4880ED0B0A1EE09FED920ACD
:102C60008A4880ED0B0A18E0834890ED001A7B48F3
:102C7000D0ED000A9FED8B0A12F070FEB0EE408A94
:102C80007D48D0ED000AB0EE480A8848FEF7F6FF0E
:102C9000B1EE400A7D4880ED0B0A7C4890ED0B0AAE
:102CA000B5EEC00AF1EE10FA00DD00E000BF7F4A89
:102CB000103AA2F596717548FFF762FD002435E0E1
:102CC0007B48007800F0010028BB04EB04116F483A
:102CD000403050F8210090ED040AF0EE408A73492C
:102CE000103901EB8401D1ED000AB0EE600A04EB6B
:102CF00004126649403101EB8201081DF0EE680ABA
:102D0000FEF7BCFF04EB04116048403000EB81008B
:102D100080ED100A09E09FED3A0A04EB04115B48CC
:102D2000403000EB810080ED100A641C042CC7DBEE
:102D30009FED330A5F4880ED000A002430E004EB89
:102D400004125249403101EB8201D1ED100AB0EE7C
:102D5000600A04EB04124D49403151F822000CF096
:102D60005DFD684600EB840090ED000AB5EEC00AF8
:102D7000F1EE10FA05DD684600EB840090ED000AE4
:102D800006E0684600EB840090ED000AB1EE400AD0
:102D90004848D0ED000A30EE200A80ED000A641C9D
:102DA000042CCCDB9FED440A444880ED000A4148E6
:102DB00090ED000A4148D0ED000A20EE200A3D487F
:102DC00080ED000A314890ED200A3D4880ED000A70
:102DD0002E4890ED310A3A4880ED010A2B4890EDDB
:102DE000420A374880ED020A284890ED530A3448D9
:102DF00080ED030A07B0BDEC068B30BDCDCC4C3E58
:102E0000000000005365745F4D6F76655F585F5337
:102E10007065656400000000DCE500205365745FA8
:102E20004D6F76655F595F53706565640000000003
:102E30005365745F4D6F76655F575F53706565646A
:102E4000000000005365745F436861737369735FCA
:102E50005961775F416E676C65000000A0C1012079
:102E60005265616C5F436861737369735F59617721
:102E70005F416E676C650000A4C101204368617307
:102E80007369735F4D6F6465000000005CD10120C1
:102E900098C101209CC1012060C1012084C1012092
:102EA00068000020DB0FC940D2537B41BCD2012017
:102EB0001601002094C101200AD7233C90C10120B3
:102EC000C4D4012070B52DED028B82B004460D46AE
:102ED00001A9284601F032FCC6B2082E03D002B088
:102EE000BDEC028B70BD01980078000200B2019920
:102EF00049780843400000EE100AB8EEC00ADFED42
:102F00002E0A20EE200ADFED2D0A80EE201AB0EE08
:102F1000418AB0EE480A20460CF090FE0198807875
:102F2000000200B20199C978084300EE100AB8EE19
:102F3000C00ADFED230A20EE200ADFED220A80EE30
:102F4000201A84ED041A94F838001F4901EB800020
:102F500090ED000A94F838001C4901EB800090EDD8
:102F6000001AC0EE010A94ED000A60EE800A019892
:102F70000079000200B201994979084300EE100A75
:102F8000B8EEC00A20EE800ADFED110A20EE200A1A
:102F900084ED050A01988079207794ED040AD4ED38
:102FA000000A80EE201A84ED011A04F148000EF0A8
:102FB00065F800BF93E70000DB0F494000000046C2
:102FC000DB0FC940000070423C9D01084C9D010888
:102FD00017B7D138F8B504460E4615461F4604B15A
:102FE00003E0832145A014F037FB07B103E08421FF
:102FF00042A014F031FB386800B103E085213FA006
:1030000014F02AFB2EB1012E03D0022E01D0032E84
:1030100000D103E0862139A014F01EFB84F838604B
:103020003EB1012E04D0022E1AD0032E46D12EE03E
:1030300000BF012D02DB082D00DC03E08D212FA055
:1030400014F00AFB394890ED000A84ED000A05F5FA
:10305000007081B22346364A38460DF075FD2DE0EA
:10306000012D02DB082D00DC03E0922123A014F0E7
:10307000F3FA2E4890ED020A84ED000A05F501707E
:1030800081B223462A4A38460DF05EFD16E0012D36
:1030900002DB042D00DC03E0972118A014F0DCFA19
:1030A000224890ED030A84ED000A05F5007081B214
:1030B00023461F4A38460DF047FD00BF00BFE763B7
:1030C00004F144022946304601F0D0F94621085364
:1030D0004620015B204600F0D3F82064154B6422A3
:1030E000012104F1480000940DF024FF224612490A
:1030F00020460CF07BFB2046F8BD00002E2E5C53D2
:10310000454D4C5C4D6964646C6577617265735CB8
:10311000436F6D6D756E69636174696F6E735C4446
:103120006A695F4D6F746F722E6300004C9D0108D9
:10313000C52E0008413200083D31000830B52DEDA4
:10314000028B81B00446B0EE408A04B103E0CC218A
:1031500017A014F081FABDEEC80A10EE100A05B2ED
:10316000C5F30722206C001D4421095D4254206CE8
:10317000001D4421095D491C455404F079F8216C77
:10318000C968401A11D004F073F8216CC86000209F
:103190000090236C1A1D4623195B0823E06B0DF089
:1031A000E1FC01B0BDEC028B30BD0020F9E700006E
:1031B0002E2E5C53454D4C5C4D6964646C657761A3
:1031C0007265735C436F6D6D756E69636174696F71
:1031D0006E735C446A695F4D6F746F722E6300009A
:1031E00070B505460C4604B103E0BD2107A014F0FC
:1031F00033FA206800B103E0BE2104A014F02CFAD9
:1032000022460E4928460CF021FB70BD2E2E5C5341
:10321000454D4C5C4D6964646C6577617265735CA7
:10322000436F6D6D756E69636174696F6E735C4435
:103230006A695F4D6F746F722E63000085F8000835
:1032400010B504469FED0D0A2046FFF777FF9FED6E
:103250000B0A84ED030A9FED090A84ED040A9FED31
:10326000070A84ED050A002020779FED040A84ED0B
:10327000020A9FED020A84ED010A10BD0000000061
:1032800010B502460B46D06B63F31F400446002185
:1032900014E00C4800EB01100068A04204D009487B
:1032A00000EB0110006838B9064800EB011004601B
:1032B000044800EB011010BD481C81B20A29E8DB6C
:1032C0000020F8E768D9012010B5024803F09CF906
:1032D00010BD000008C4012010B5024803F094F9A5
:1032E00010BD000034CD002010B5024803F08CF969
:1032F00010BD000094CF002010B5024803F084F9FF
:1033000010BD0000F4CF002010B5024803F07CF996
:1033100010BD000094CD002010B5024803F074F9F0
:1033200010BD0000D4CE002010B5024803F06CF9A7
:1033300010BD000068C4012010B5024803F064F914
:1033400010BD000034CF002010B5024803F05CF936
:1033500010BD000050CB002010B5024803F054F916
:1033600010BD0000A8C3012010B5024803F04CF9BD
:1033700010BD0000C8C4012010B5024803F044F994
:1033800010BD000048C301200146087810381823FA
:10339000B0FBF3F20848805CC865032A05D90868C9
:1033A0006FF30900001D886503E008686FF30900EA
:1033B0008865886D70470000149A01080146002056
:1033C0008A6A8B69CBB932B1012A0DD0022A03D0A7
:1033D000032A10D10EE000BFCB6A03F08073B3F173
:1033E000807F00D1012007E0CB6AB3F1C07F00D11C
:1033F000012001E000E000BF34E08B69B3F5005F1D
:103400001AD132B1012A07D0022A03D0032A11D1DE
:103410000AE000BF01200EE0CB6A03F08073B3F135
:10342000807F00D1012006E0CB6AB3F1C07F00D1DC
:10343000012000E000BF15E032B1012A05D0022AC8
:1034400004D0032A0CD103E000BF00BF012008E034
:10345000CB6A03F08073B3F1807F00D1012000E0DC
:1034600000BF00BF704730B50468246824F480248E
:1034700005682C60046863608468402C04D104688B
:10348000A2600468E16003E00468A1600468E2608F
:1034900030BD0246908A01238B40184008B10120BC
:1034A00070470020FCE70146887C70470146C87CD5
:1034B0007047000038B504460D460020A0624FF466
:1034C000806020806080A080E08060810220207287
:1034D00060720020A0810021E1812182A174E17449
:1034E00084F85C001423032204F12C0000950DF0F5
:1034F000A9FE22460A4904F12C000DF067FF1222B2
:1035000004F1160104F12C000DF0FEFE054B14220F
:10351000012104F1600000940DF00CFD38BD0000A5
:103520005F350008DF36000810B504460020A062B1
:103530004FF4806020806080A080E0806081022065
:10354000207260720020A0810021E1812182A1749B
:10355000E174A08204F12C000DF032FE10BD70B5B4
:1035600005466C6AA88B122800D070BD00BFA17DF3
:10357000E07D41EA0020C0F30A002080B4F9000099
:10358000B0F5B67F05DBB4F9000040F294618842E3
:1035900000DD9BE0E07DC110207E41EA4010C0F3D9
:1035A0000A006080B4F90200B0F5B67F05DBB4F91B
:1035B000020040F29461884200DD87E0207E8111A4
:1035C000607E41EA8001A07E41EA8020C0F30A00CB
:1035D000A080B4F90400B0F5B67F05DBB4F90400AF
:1035E00040F29461884200DD70E0A07E4110E07EF0
:1035F00041EAC010C0F30A00E080B4F90600B0F55B
:10360000B67F05DBB4F9060040F29461884200DD24
:103610005CE02620015D2720005D41EA0020C0F328
:103620000A006081B4F90A00B0F5B67F05DBB4F991
:103630000A0040F29461884200DD47E0E07E00111C
:1036400080082072207A012806D0207A032803D02F
:10365000207A022800D039E0E07EC0F301106072C9
:10366000607A012806D0607A032803D0607A0228A5
:1036700000D02BE0217F607F41EA002000B2A081D2
:10368000A17FE07F41EA002001B2E1812020015DBD
:103690002120005D41EA002001B221822220015D4B
:1036A000A1742320015DE1742420015D2520005DCB
:1036B00041EA0020A08204F160000DF0DFFC03F07D
:1036C000D7FDA062002084F85C004EE700BF012017
:1036D00084F85C002046FFF727FF00BF45E770B580
:1036E00004462546032085F85C002846FFF71CFFAA
:1036F000122205F1160105F12C000DF005FE70BD3A
:1037000070B504460D4604B103E0B6211FA013F0C6
:10371000A3FF05B103E0B7211CA013F09DFF2068B3
:1037200000B103E0B82119A013F096FF207B20F030
:10373000800080302073E088A18888420CD1207BF3
:1037400020F03C000830207300BF207B20F0800078
:10375000207300BF012070BDA3886689206803FB29
:10376000060132462846FCF7B1FEA088401CA08026
:10377000A0882189884201DB0020A08000BF207B37
:1037800020F08000207300BF0020E4E72E2E5C5361
:10379000454D4C5C4D6964646C6577617265735C22
:1037A000446174615374727563747572655C71758C
:1037B0006575652E63000000704710B5082003F0A2
:1037C00001FB10BD10B5102003F0FCFA10BD10B5C0
:1037D000202003F0F7FA10BD70B504460D4604B181
:1037E00003E087213EA013F037FF05B103E08821F5
:1037F0003BA013F031FF206800B103E0892138A01D
:1038000013F02AFF207B00F0030048B1207B00F07A
:103810000300012804D0207B00F00300022800D11F
:1038200003E08A212EA013F017FF207B20F08000F8
:1038300080302073E088401C218990FBF1F201FB6D
:103840001200A188884230D1207B00F00300F0B143
:1038500001280AD0022827D1A088401C218990FB8A
:10386000F1F201FB1200A0801EE0204614F0DEFE03
:1038700060B1207B20F03C000C30207300BF207B27
:1038800020F08000207300BF012070BD0CE0207B81
:1038900020F03C00001D207300BF207B20F0800042
:1038A000207300BF0120F0E700BFE388668921682C
:1038B00003FB061032462946FCF708FEE088401C50
:1038C000E080E0882189884201D10020E08000BFAB
:1038D000207B20F08000207300BF0020D5E700008F
:1038E0002E2E5C53454D4C5C4D6964646C6577616C
:1038F0007265735C4461746153747275637475723C
:10390000655C71756575652E6300000072B600BF59
:10391000FEE7000010B503F0ABFC044600BF002139
:103920002548816100202449486113E003F0A0FC90
:10393000001B642800D90EE01F484069401C1E4946
:10394000486101211C4800F045F900211A4808305F
:1039500000F040F9EAE700BF1748406932214843C8
:103960006421B0FBF1F114488161002012494861E3
:1039700003F07EFC04460FE003F07AFC001B642891
:1039800000D90AE00C484069401C0B4948610021FD
:103990000948083000F01EF9EEE700BF064840690C
:1039A000322148436421B0FBF1F10348C16100209A
:1039B0000149486110BD000040E5002010B50446F3
:1039C0000120034908820121014800F003F910BDDC
:1039D00040E500204648846803F04AFC00B104E05A
:1039E0004FF4BA7143A013F037FE4148806908B91B
:1039F000FFF790FF0BE0206900B104E040F27B117B
:103A00003CA013F029FE204600F066F9A469002CC2
:103A1000F1D1374804680BE0206900B104E04FF4AD
:103A2000C17134A013F018FE204600F055F9A469C6
:103A3000002CF1D1642003F025F92D48007C00F022
:103A4000010050BB28E003F013FC34490968401A18
:103A5000322813D92648406964214843244989699A
:103A6000B0FBF1F0C0F1640040B22149887400203D
:103A7000486103F0FDFB2949086004E01C484069E7
:103A8000401C1B4948610121194800F0A3F800219E
:103A90001748083000F09EF8D5E71548C1698161E4
:103AA00024E003F0E5FB1D490968401A322813D9C8
:103AB0000F484069642148430D498969B0FBF1F022
:103AC000C0F1640040B20A4988740020486103F0E4
:103AD000CFFB1249086004E005484069401C0449D6
:103AE000486100210248083000F074F8D9E700006E
:103AF00040E500202E2E5C53454D4C5C4D696464BE
:103B00006C6577617265735C53797374656D5C6520
:103B100076656E745F6F732E630000002CC1012008
:103B200010B5044604B103E0AB211FA013F094FDCF
:103B3000208820F00100401C20802078C0F3C000C5
:103B400050B12348007900F0010000B110BD2146BA
:103B50001F480EF079FD0AE01D48007B00F00100CF
:103B600000B1F3E721461A4808300EF06DFD606998
:103B700008B1606980470021616121610020A06176
:103B8000A1606060207820F008002070207820F08C
:103B900004002070208820F002002080208820F07F
:103BA0000100208000BFD1E72E2E5C53454D4C5CB8
:103BB0004D6964646C6577617265735C5379737485
:103BC000656D5C6576656E745F6F732E63000000D3
:103BD00040E500202DE9F04105460F460120A88070
:103BE0002C682C6821E02078C0F38000E0B1A06848
:103BF000D0B103F03DFB6168884215D303F038FB78
:103C0000A16808446060207800F0010048B1A6690E
:103C10000020A8802046FFF783FF0120A8803446BB
:103C200002E0204621698847A469002CDBD10020EE
:103C3000A880BDE8F08100002DE9F04704460E465B
:103C400015461F46DDE9088904B103E0892117A064
:103C500013F002FDB8F1000F00D003E08A2113A099
:103C600013F0FAFCE760C4F81490C4F81080002048
:103C7000A061A6606060207820F0040020702078A9
:103C800065F3C3002070208820F002002080012D01
:103C900004D121460F480EF0CAFC04E021460D482D
:103CA00008300EF0C4FCBDE8F08700002E2E5C53F7
:103CB000454D4C5C4D6964646C6577617265735CFD
:103CC00053797374656D5C6576656E745F6F732E82
:103CD0006300000040E5002010B5044604B103E095
:103CE00069210BA013F0B8FC2078C0F3400040B964
:103CF000E06808B1E0688047208820F00200801C5E
:103D00002080207820F00400001D207010BD0000ED
:103D10002E2E5C53454D4C5C4D6964646C65776137
:103D20007265735C53797374656D5C6576656E74EA
:103D30005F6F732E6300000070B504460D460026C9
:103D4000ACB1012C13D0022C11D0032C0FD0042CB9
:103D50000DD0052C0BD0062C09D0072C07D0082C31
:103D600005D0092C03D00A2C01D00B2C00D104E083
:103D700040F2D9311CA013F06FFC2DB1012D03D0FE
:103D8000022D01D0032D00D104E040F2DA3116A05B
:103D900013F062FC0DB9002609E0012D01D12E02BD
:103DA00005E0022D01D12E0201E04FF440761E48BD
:103DB000006820F440701C490860084600683043E1
:103DC00008600846006820F0F800086008460068AF
:103DD000022141EAC401084313490860084600680B
:103DE00040F48030086070BD2E2E2F4472697665D5
:103DF00072732F53544D3332463478785F48414CB8
:103E00005F4472697665722F5372632F73746D33DA
:103E100032663478785F68616C5F666C6173685F86
:103E200065782E6300000000103C02401C480068CA
:103E300000F40070B0B11A48006820F4007018490E
:103E4000086000BF0846006840F40060086008464B
:103E5000006820F40060086000BF0846006840F475
:103E6000007008600E48006800F48060B0B10C4833
:103E7000006820F480600A49086000BF08460068B6
:103E800040F4805008600846006820F480500860C4
:103E900000BF0846006840F480600860704700007A
:103EA000003C024010B502F003FF10BD234800683B
:103EB00000F0100040B12248C06940F010002049D5
:103EC000C86110201D4908601C48006800F02000EF
:103ED00040B11B48C06940F008001949C861202062
:103EE000164908601548006800F0400040B11448C9
:103EF000C06940F004001249C86140200F490860C1
:103F00000E48006800F0800040B10D48C06940F0E4
:103F100002000B49C8618020084908600748006812
:103F200000F0020040B10648C06940F0200004499A
:103F3000C861022001490860704700000C3C024043
:103F400030D1012070B505460C46164605B103E098
:103F5000962126A013F080FB06B103E0972123A051
:103F600013F07AFB04B103E0982120A013F074FB56
:103F700094ED000AD4ED030A30EE200AD5ED050ACF
:103F8000B0EE001A60EE810A80EE201A86ED001A6B
:103F900094ED020AD4ED010A30EE200AD5ED050AAF
:103FA000B0EE001A60EE810A80EE201A86ED011A4A
:103FB00094ED000AD4ED030A30EE200AD4ED020A93
:103FC00030EE200AD4ED010A30EE200AD5ED060AC3
:103FD000B1EE001A60EE810A95ED051A60EE810AD5
:103FE00080EE201A86ED021A70BD00002E2E5C5362
:103FF000454D4C5C4D6964646C6577617265735CBA
:10400000536F6C7574696F6E5C6368617373697309
:104010002E63000070B52DED048B04460E46154648
:104020009FED310AF0EE409A04B103E080212FA009
:1040300013F012FB06B103E081212CA013F00CFB5E
:1040400005B103E0822129A013F006FB96ED008A5A
:10405000D6ED018A96ED029A38EE680ADFED220A63
:1040600020EE200AD4ED060A09EE600AD4ED050A16
:1040700020EE200A85ED000AB1EE480A30EE680A0B
:10408000DFED190A20EE200AD4ED060A09EE600AD7
:10409000D4ED050A20EE200A85ED010A38EE280A43
:1040A000DFED110A20EE200AD4ED060A09EE600ABF
:1040B000D4ED050A20EE200A85ED020AB1EE480A89
:1040C00030EE280ADFED080A20EE200AD4ED060AB9
:1040D00009EE600AD4ED050A20EE200A85ED030AF8
:1040E000BDEC048B70BD0000CD13D43E2E2E5C536E
:1040F000454D4C5C4D6964646C6577617265735CB9
:10410000536F6C7574696F6E5C6368617373697308
:104110002E6300000FB410B52DED028B044604B1E0
:1041200003E0642130A013F097FA9DF824000128E1
:1041300003D09DF92400401C00B903E065212AA0AA
:1041400013F08AFA9DED070AB5EEC00AF1EE10FAF7
:1041500000DD03E0662124A013F07EFA9DED060A3F
:10416000B5EEC00AF1EE10FA00DD03E067211EA0F3
:1041700013F072FA9DED080AB5EEC00AF1EE10FADE
:1041800000DD03E0682118A013F066FA9DED070A30
:10419000DFED1F0A20EE200ADFED1E0A80EE208AE6
:1041A0009DED060A9FED1C1AC0EE010A9DF9240040
:1041B00000EE100AB8EEC00A20EE800A84ED060A6E
:1041C0009DED080ADFED120A20EE200AC0EE080A73
:1041D000C4ED050A1148E06111482062BDEC028B74
:1041E00010BC5DF814FB00002E2E5C53454D4C5C5A
:1041F0004D6964646C6577617265735C536F6C754F
:1042000074696F6E5C636861737369732E63000019
:10421000DB0FC94000007A440000FA441540000852
:10422000453F000870B503F023F8044604F57A759D
:10423000B9EE040A014880ED000A70BD50D101209A
:1042400010B52DED068B154890ED000AB5EEC00AAD
:10425000F1EE10FA1FDD1248006815F067F941EC25
:104260001A0B9FED100B53EC102B14F069FE41EC70
:10427000190B14F089FB08EE100A084890ED000AAB
:10428000F0EE400AB0EE481A9FED080AFCF71CFB5E
:10429000024880ED000ABDEC068B10BD50D1012014
:1042A000E80000209A9999999999A93F0000000087
:1042B00010B52DED028B82B053A000F07FF90446BB
:1042C0002146574800F004FA5649C1F888010846CB
:1042D00090ED620AB0EE408A9FED530AB4EEC08AB8
:1042E000F1EE10FA04DB9FED500AB0EE408A0AE0CE
:1042F0009FED4E0AB4EEC08AF1EE10FA03D29FEDA4
:104300004B0AB0EE408A4A48B0F90E0000EE100A9F
:10431000F8EEC00A9FED471AB0EE480A01EE200AF7
:10432000B0EE408A9FED440A28EE000A3D48D0EDE9
:10433000620A9FED421A00EE810AB0EE408A32A076
:1043400000F03CF904460020034618EE102A2146EE
:104350000090334813F088FF39A000F02FF904468D
:1043600021462F4800F0B4F92E49C1F8C000084694
:1043700090ED300AB0EE408A2D48B0F90C0000EE06
:10438000100AF8EEC00A9FED2B1AB0EE480A01EEB3
:10439000600AB0EE408A9FED300A28EE000A084617
:1043A000D0ED300A9FED2D1A00EE810AB0EE408A62
:1043B0009FED2B0AB4EEC08AF1EE10FA06DB9FEDFA
:1043C000290A38EE400AB0EE408A0CE09FED260A3A
:1043D000B4EEC08AF1EE10FA05D29FED220A38EE53
:1043E000000AB0EE408A16A000F0E8F8044600206B
:1043F000034618EE102A21460090094813F034FFB6
:1044000002B0BDEC028B10BD5365745F47696D62ED
:10441000616C5F50697463685F416E676C65000032
:10442000DCE5002054D601209A99993E9A9999BECC
:104430006800002017B75139CDCC4C3ECDCC4C3F55
:104440005365745F47696D62616C5F5961775F4165
:104450006E676C6500000000CDCCCC3D6666663FA3
:10446000DB0F4940DB0FC940DB0F49C070B5054683
:104470000C46164606B103E05E2128A013F0ECF8C6
:104480002DB1012D03D0022D01D0032D00D103E069
:104490005F2122A013F0E0F8601E8007400F30700B
:1044A0003DB1012D04D0022D14D0032D2FD122E0D7
:1044B00000BF012C02DB082C00DC03E0652117A003
:1044C00013F0CAF8042C02DC4FF4007070BD40F207
:1044D000FF10FBE7012C02DB082C00DC03E06B2162
:1044E0000EA013F0B9F8042C02DC40F2FF10EDE747
:1044F00040F2FF20EAE7012C02DB042C00DC03E0A1
:10450000712106A013F0A8F84FF40070DEE77421C3
:1045100002A013F0A1F80020D8E700002E2E5C5373
:10452000454D4C5C4D6964646C6577617265735C84
:10453000436F6D6D756E69636174696F6E735C4412
:104540006A695F4D6F746F722E63000030B5044668
:10455000E5B229460148FEF79CFF30BD6800002007
:1045600000B50246D3B20248FEF79DFF00BD000031
:104570006800002000B50246D3B20248FEF796FF5D
:1045800000BD00006800002070B50A480468001DE6
:104590000568001D0668344454B1082206492046C7
:1045A00009F04CFE042204491031284609F046FE69
:1045B00070BD0000107AFF1F3600002070B5044661
:1045C0000020374908803749088000BF06E0215C99
:1045D000334A12885140324A1180401C215C002924
:1045E000F5D12F480088322190FBF1F201FB120037
:1045F0002B490880002231E029480088C0EB0010D8
:10460000294911F8100000B92AE0002114E0605C8B
:1046100028B90120234B18802148008870BD605CB8
:104620001F4B1B88C3EB03131F4D05EB43035B5C60
:10463000984200D002E0491C1E29E8DB00BF184860
:104640000088401C1649088008460088322190FBEB
:10465000F1F301FB130012490880521C322ACBDD12
:1046600000BF12480088401C104908800846008896
:10467000322803DB4B210EA012F0EEFF002009E0F0
:10468000215C074A1288C2EB0212074B03EB42027D
:104690001154401C215C0029F2D101480088BDE77B
:1046A000180100201A01002040EF00201C0100200A
:1046B0002E2E5C53454D4C5C4170705C526F626FA6
:1046C0005C526F626F5F636F6D6D6F6E2E63000083
:1046D00038B504460D4604B104E04FF4C6710748EE
:1046E00012F0BAFF6A462946204613F019FC10B9A9
:1046F0000098C06838BD0020FCE70000849F0108D6
:10470000F8B505460E46144605B104E04FF4CE71E7
:10471000094812F0A1FF6A463146284613F000FC12
:1047200028B900984068206000980089F8BD0020F2
:10473000206000BFFAE70000849F010870B50446BE
:104740000D4604B104E040F26F11034812F084FFFB
:1047500060682860208970BD849F010810B52DED28
:10476000028B82B0494B012202214948FEF732FCFC
:104770004849C1F8C800484B032202214748FEF7C8
:1047800029FC4449086046A0FFF718FF04460020B2
:104790000090404800232146D0F8C820454813F037
:1047A00063FD45A0FFF70AFF04460020009039484A
:1047B0000023214602683F4813F056FD344890F824
:1047C0003800424931F9100000EE100AB8EEC00A74
:1047D000B0EE408ADFED3E2AB1EE482AF0EE481AEC
:1047E0009FED3C1ADFED3C0A9FED3C0A2948CC3096
:1047F0000BF0B8F9DFED362A9FED392ADFED391AD3
:10480000B1EE001ADFED380A9FED380A38480BF098
:10481000A9F9224890F838002C4931F9100000EE2F
:10482000100AB8EEC00AB0EE408ADFED292AB1EED8
:10483000482AF0EE481A9FED2C1ADFED270A9FED6B
:10484000260A1448001D0BF08DF9DFED212A9FED9B
:10485000292ADFED291AB0EE081ADFED230A9FEDB1
:10486000270A0C4840300BF07DF9254890ED000AEE
:10487000084880ED620A224890ED020A054880ED62
:10488000300A02B0BDEC028B10BD000078E60020BB
:10489000E8D7012054D6012000E6002048D80120A6
:1048A00047696D62616C5F50697463685F4D6F74D6
:1048B0006F720000DCE5002047696D62616C5F5932
:1048C00061775F4D6F746F7200000000349D0108C6
:1048D0006F12833A3333333F00007A440000484478
:1048E0000000B4C30000B443000000000000F04228
:1048F0005CD70120000087C40000874400003443D7
:10490000F0E60020F8B50646032406A0FFF756FEA1
:10491000054600200346224629460090044813F02D
:10492000A3FCF8BD53686F6F745F4D6F6465000042
:10493000DCE50020F8B50646012406A0FFF73EFEA0
:10494000054600200346224629460090044813F0FD
:104950008BFCF8BD53686F6F745F4D6F646500002A
:10496000DCE5002030B52DED048B83B00546CEA0EC
:10497000FFF724FE04462146D148FFF7A9FED1499E
:10498000C1F8C000D0A0FFF719FE04462146CC486C
:10499000FFF79EFECB49C1F88801D1A0FFF70EFEBC
:1049A0000446D44A2146C648FFF7AAFED2480078FA
:1049B00000F0010080B1C3499FEDD00A08680AF0F9
:1049C0002DFFC0499FEDCD0AD1F8C8000AF026FF9F
:1049D00003B0BDEC048B30BDBA48D0F8900190ED27
:1049E000020ADFEDC71A30EE210AB0EE401AB548D0
:1049F00090ED300ADFEDC21A30EE210AF0EE400AE7
:104A00009FEDC00A10F0AAFFF0EE408ABEA0FFF7AB
:104A1000D5FD04462146AA48FFF75AFE02909DEDB7
:104A2000020AB5EEC00AF1EE10FA24D0A548D0F87B
:104A3000900190ED020A9FEDB21A30EE010AF0EEFD
:104A4000400AB0EE680A9F484030FDF717F99D48CC
:104A500080ED2F0A006890ED041AF0EE410A9948A3
:104A600090ED2F1AB0EE410A001DFDF707F99548A9
:104A700080ED2E0A23E09348D0F8900190ED020AD1
:104A80009FED9F1A30EE010AF0EE400AB0EE680A80
:104A90008C484030FDF7F2F88A4880ED2F0A006814
:104AA00090ED041AF0EE410A864890ED2F1AB0EE10
:104AB000410A001DFDF7E2F8824880ED2E0A814987
:104AC000D1ED2E0AB0EE600A08680AF0A7FE7D4814
:104AD00090ED2E0A8F4880ED000A7A48D0F89001B8
:104AE00090ED000AB5EEC00AF1EE10FA05DD75484A
:104AF000D0F8900190ED000A08E07248D0F89001DB
:104B000090ED000ADFED7F0A30EE200AB0EE409A09
:104B10006C4890ED620ADFED7A0A30EE200AF0EE82
:104B2000408A90ED620A7C4880ED000A7B48C0ED27
:104B3000008A6448D0F8900190ED000A784880ED32
:104B4000000A784880ED009A6FA0FFF737FD044611
:104B500021465B48FFF7BCFD02909DED020AB5EED1
:104B6000C00AF1EE10FA2ED0F0EE490AB0EE680A53
:104B700060488838FDF782F8524880ED610AD0ED30
:104B8000620A9FED690A9FED691A01EE200A90ED15
:104B9000621ADFED670AB0EE608A00EE018AD0F893
:104BA000C80090ED041AF0EE410A464890ED611AF3
:104BB000B0EE410ACC30FDF761F830EE080A41480A
:104BC00080ED600A2DE0F0EE490AB0EE680A49482F
:104BD0008838FDF753F83B4880ED610AD0ED620A52
:104BE0009FED510A9FED511A01EE200A90ED621AD5
:104BF000DFED4F0AB0EE608A00EE018AD0F8C800FF
:104C000090ED041AF0EE410A2E4890ED611AB0EED4
:104C1000410ACC30FDF732F830EE080A294880ED21
:104C2000600A444880ED008A264890ED610A4248B7
:104C300080ED000A2349D1ED600AB0EE600AD1F898
:104C4000C8000AF0EBFD1F4890ED2F0A3B4880EDAD
:104C5000000A1C4890ED610A394880ED000A1948A5
:104C600090ED600A374880ED000A37A0FFF7A6FCF8
:104C7000044600200090134800232146D0F8BC20B1
:104C80000F4813F0F1FA34A0FFF798FC0446002017
:104C900000900C4800232146D0F88421084813F0E6
:104CA000E3FA00BF94E600005365745F47696D62E4
:104CB000616C5F5961775F416E676C650000000051
:104CC000DCE5002054D601205365745F47696D62AE
:104CD000616C5F50697463685F416E676C6500006A
:104CE0005365745F47696D62616C5F496D755F44C0
:104CF00061746100E4D7012016010020000000006B
:104D0000DB0F4940DB0FC9405365745F41415F6F62
:104D10006E000000C4C10120C8C10120BCC1012037
:104D2000B8C10120CCC1012017B751390646C1B323
:104D3000FB5C1D3FD0C10120D4C10120B0C10120C6
:104D4000B4C10120C0C101204769626D616C5F5927
:104D500061775F56656C00004769626D616C5F50FA
:104D6000697463685F56656C00000000F8B505461D
:104D70000C46002000902068122800D804E040F281
:104D80008B6172A012F068FC606818B1606810282E
:104D900000D804E040F28C616CA012F05DFCA068C9
:104DA000A0B1A068012811D0A06802280ED0A06888
:104DB00003280BD0A068042808D0A068052805D0D7
:104DC000A068062802D0A068072800D104E040F2BD
:104DD0008D615EA012F040FC00BF95F83C000128F8
:104DE00001D10220F8BD012085F83C0000BF2068F9
:104DF000092816D92868C06821780A3901EB4102D0
:104E00000721914088432968C86021780A3901EB5D
:104E10004101A06888402968C96808432968C860BA
:104E200013E028680069217801EB410207219140D5
:104E3000884329680861217801EB4101A068884016
:104E4000296809690843296808616068072817D23A
:104E50002868406B2179491E01EB81021F21914096
:104E6000884329684863208880B22179491E01EB74
:104E7000810188402968496B08432968486331E00B
:104E800060680D2817D22868006B2179C91F01EBD3
:104E900081021F219140884329680863208880B2DD
:104EA0002179C91F01EB810188402968096B0843FA
:104EB0002968086316E02868C06A21790D3901EB7A
:104EC00081021F21914088432968C862208880B2EE
:104ED00021790D3901EB810188402968C96A0843AD
:104EE0002968C862274E28492868884206D1206868
:104EF000122803D1706840F480007060224928684D
:104F000088421CD12068102802D02068112816D1B0
:104F1000706840F400007060206810280FD11B48B2
:104F200000681B49B0FBF1F000EB800040000090EE
:104F300002E00098401E009000980028F9D100BFC0
:104F4000002085F83C0000BF00BF4BE72E2E2F4409
:104F50007269766572732F53544D333246347878C4
:104F60005F48414C5F4472697665722F5372632FBC
:104F700073746D3332663478785F68616C5F616436
:104F8000632E6300002301400020014040C0012047
:104F900040420F0070B5044600250CB9012070BDD9
:104FA0008B492068884207D08A492068884203D00C
:104FB00089492068884200D104E04FF4A17187A09C
:104FC00012F04AFB606858B16068B0F5803F07D0C6
:104FD0006068B0F5003F03D06068B0F5403F00D195
:104FE00004E040F243117DA012F036FBA06858B1F6
:104FF000A068B0F1807F07D0A068B0F1007F03D037
:10500000A068B0F1407F00D104E04FF4A27173A01A
:1050100012F022FB206910B12069012800D104E0C0
:1050200040F245116DA012F017FB207E10B1207EDA
:10503000012800D104E04FF4A37168A012F00CFB2A
:10504000A06AE8B3A06AB0F1807F3DD0A06AB0F159
:10505000007F39D0A06AB0F1407F35D0A06AB0F1AE
:10506000806F31D0A06AB0F1A06F2DD0A06AB0F1EE
:10507000C06F29D0A06AB0F1E06F25D0A06AB0F16E
:10508000006F21D0A06AB0F1106F1DD0A06AB0F1FE
:10509000206F19D0A06AB0F1306F15D0A06AB0F1BE
:1050A000406F11D0A06AB0F1506F0DD0A06AB0F17E
:1050B000606F09D0A06AB0F1706F05D0554900E06B
:1050C00002E0A06A884200D104E040F2471143A008
:1050D00012F0C2FAE06818B1E068B0F5006F00D1D4
:1050E00004E04FF4A4713DA012F0B6FAE06918B1E3
:1050F000E069102800D804E040F2491137A012F00E
:10510000ABFA94F8300018B194F83000012800D1BF
:1051100004E04FF4A57131A012F09EFA60690128F5
:1051200004D0606910B16069022800D104E040F247
:105130004B112AA012F090FA2020005D18B1202017
:10514000005D012800D104E04FF4A67123A012F005
:1051500083FA3049A06A884213D0E06A58B1E06A05
:10516000B0F1805F07D0E06AB0F1005F03D0E06A81
:10517000B0F1405F00D104E04FF4A87117A012F025
:105180006BFA206C30B9204600F046F800206064CD
:1051900084F83C00206C00F0100088B9206C20F4EA
:1051A000885040F0020020642046FBF761FF002099
:1051B0006064206C20F0020040F00100206400E0F8
:1051C000012500BF002084F83C0000BF2846E6E629
:1051D0000020014000210140002201402E2E2F44DA
:1051E0007269766572732F53544D33324634787832
:1051F0005F48414C5F4472697665722F5372632F2A
:1052000073746D3332663478785F68616C5F6164A3
:10521000632E63000100000F38B504461949206869
:1052200088422DD100BF002000901748006840F44C
:105230008070154908600846006800F4807000908E
:1052400000BF00BF114812490860002048600021DB
:105250000F488160C1604FF4806101614900416184
:10526000890081610021C1610162416201F0ECFAB3
:1052700008B1FEF74BFB00BF0548A063846300BF85
:1052800038BD0000002001404438024070640240F4
:1052900050CB002070B504460D4694F820600D48B0
:1052A000854200D804E04FF4D0610BA012F0D4F98D
:1052B000012E01D0022E06D12068406928432168C2
:1052C0004861002070BD606A40F480206062012067
:1052D000F8E700007F8F03002E2E2F447269766559
:1052E00072732F53544D3332463478785F48414CB3
:1052F0005F4472697665722F5372632F73746D33D6
:1053000032663478785F68616C5F63616E2E63002B
:105310002DE9F04705460C461746994695F820A01A
:105320002868D0F80880A06810B1A068042800D1CF
:1053300004E040F2E94163A012F08EF9E06810B198
:10534000E068022800D104E040F2EA415DA012F0DA
:1053500083F92069082800D804E040F2EB4159A005
:1053600012F07AF9A06850B92068B0F5006F00D249
:105370000FE040F2EE4153A012F06EF909E06068D0
:10538000B0F1005F00D204E040F2F2414DA012F013
:1053900063F9207D10B1207D012800D104E040F2A6
:1053A000F44148A012F058F9BAF1010F02D0BAF155
:1053B000020F79D108F0806030B908F0006018B9A8
:1053C00008F08050002871D0C8F30166022E06D97B
:1053D000686A40F4000068620120BDE8F08701209F
:1053E000B040C9F80000A06850B92188E06840EAE0
:1053F0004151286800F5C07000EB061001600BE019
:10540000D4E9011040EAC100E1680843296801F5C8
:10541000C07101EB061108602169286800F5C070B1
:1054200000EB06104160207D01280DD1286800F5B1
:10543000C07000EB0610406840F48071286800F5E9
:10544000C07000EB06104160F8790006B97940EAB7
:105450000140797940EA012039790843296801F54A
:10546000C07101EB0611C860F8780006B97840EA0F
:105470000140797840EA012039780843296801F52C
:10548000C07101EB06118860286800F5C07000EB60
:105490000610006840F00101286800F5C07000EBBC
:1054A00006100160002098E706E0FFE7686A40F414
:1054B00000106862012090E7686A40F4802068620A
:1054C00001208AE72E2E2F447269766572732F535E
:1054D000544D3332463478785F48414C5F447269AA
:1054E0007665722F5372632F73746D33326634781E
:1054F000785F68616C5F63616E2E63002DE9F04137
:1055000007460C463D6897F82080B8F1010F02D09D
:10551000B8F1020F7ED12068B0F5803F00D204E0E0
:105520004FF4547172A012F097F86068B0F5803FA4
:1055300000D204E040F251316DA012F08DF8A06865
:10554000B0F5803F00D204E040F2523168A012F082
:1055500083F8E068B0F5803F00D204E040F25331B8
:1055600063A012F079F8A06910B1A069012800D1F8
:1055700004E04FF455715EA012F06EF8E06910B1CE
:10558000E069012800D104E040F2553158A012F042
:1055900063F8206910B12069012800D104E040F2CD
:1055A000563153A012F058F8206A10B1206A012831
:1055B00000D104E040F257314DA012F04DF85A4DA1
:1055C00060691B2800D804E040F2723148A012F054
:1055D00043F8606A1B2800D804E040F2733144A00D
:1055E00012F03AF805F50075286840F001002860CF
:1055F000286820F47C5028602868616A40EA01200D
:105600002860207D00F01F01012000FA01F6E86902
:10561000B04300E066E0E861A5F50075E069C8B94F
:10562000D5F80C02B043C5F80C02A08880B2A1895D
:1056300040EA014105F51070626940F83210208897
:1056400080B2218940EA014105F51070626900EBE2
:10565000C2004160E069012819D1D5F80C0230433D
:10566000C5F80C02A08880B2218840EA014105F506
:105670001070626940F83210A08980B2218940EA36
:10568000014105F51070626900EBC2004160A0693C
:1056900028B9D5F80402B043C5F8040204E0D5F8EF
:1056A00004023043C5F80402206928B9D5F8140271
:1056B000B043C5F8140204E0D5F814023043C5F82D
:1056C0001402206A012804D1D5F81C023043C5F821
:1056D0001C02D5F8000220F00100C5F800020020ED
:1056E000BDE8F081786A40F4802078620120F7E715
:1056F0002E2E2F447269766572732F53544D3332B8
:10570000463478785F48414C5F4472697665722F01
:105710005372632F73746D3332663478785F6861C7
:105720006C5F63616E2E6300006400407047000090
:105730002DE9F04104460D4616461F4694F8208098
:105740000DB1012D00D104E04FF4BE615FA011F056
:1057500083FFB8F1010F02D0B8F1020F7ED15DB91D
:105760002068C06800F0030088B9606A40F4001047
:1057700060620120BDE8F0812068006900F003004C
:1057800028B9606A40F4001060620120F2E72068E6
:1057900000F5D87000EB0510006800F00400B06060
:1057A000B06840B9206800F5D87000EB05100068BB
:1057B000400D306007E0206800F5D87000EB051060
:1057C0000068C0087060206800F5D87000EB051014
:1057D000006800F00200F060206800F5D87000EB6F
:1057E0000510406800F00F003061206800F5D870A7
:1057F00000EB0510406800F47F40000AB0612068AB
:1058000000F5D87000EB05104068000C706120684E
:1058100000F5D87000EB051080683870206800F53E
:10582000D87000EB0510806800F47F40000A7870A3
:10583000206800F5D87000EB0510806800F47F0048
:10584000000CB870206800F5D87000EB0510806877
:10585000000EF870206800F5D87000E02FE000EB33
:105860000510C0683871206800F5D87000EB05108D
:10587000C06800F47F40000A7871206800F5D87095
:1058800000EB0510C06800F47F00000CB8712068C0
:1058900000F5D87000EB0510C068000EF87135B93E
:1058A0002068C06840F020002168C86005E02068DA
:1058B000006940F020002168086100205AE7606A12
:1058C00040F480206062012054E700002E2E2F4417
:1058D0007269766572732F53544D3332463478783B
:1058E0005F48414C5F4472697665722F5372632F33
:1058F00073746D3332663478785F68616C5F6361AE
:105900006E2E63002DE9F05F04460025206846698D
:105910002068D0F80490206887682068D0F80CA030
:105920002068D0F810B02068D0F8188006F0010088
:10593000002855D007F00100C0B10120216888601F
:1059400007F0020018B12046A16A88470EE007F070
:10595000040010B145F4006508E007F0080010B13C
:1059600045F4805502E02046616B884707F480705B
:10597000C8B14FF480702168886007F4007018B1D6
:105980002046E16A88470EE007F4806010B145F4D4
:10599000005508E007F4006010B145F4804502E0CE
:1059A0002046A16B884707F48030C8B14FF480309F
:1059B0002168886007F4003018B12046216B8847C1
:1059C0000EE007F4802010B145F4004508E007F42C
:1059D000002010B145F4803502E02046E16B884795
:1059E00006F0080038B10AF0100020B145F4007547
:1059F00010202168C86006F0040040B10AF00800D9
:105A000028B108202168C8602046616C884706F0EC
:105A1000020038B12068C06800F0030010B12046D1
:105A2000216C884706F0400038B10BF0100020B11F
:105A300045F4806510202168086106F0200040B11F
:105A40000BF0080028B10820216808612046E16CAD
:105A5000884706F0100038B12068006900F00300A4
:105A600010B12046A16C884706F4003040B109F01F
:105A7000100028B11020216848602046216D884719
:105A800006F4803040B109F0080028B108202168F0
:105A900048602046616D884706F4004088B309F0ED
:105AA000040078B306F4807020B108F0010008B15A
:105AB00045F0010506F4007020B108F0020008B1BD
:105AC00045F0020506F4806020B108F0040008B13A
:105AD00045F0040506F40060A0B108F0700088B13C
